{
  "contractName": "SimpleNFT",
  "abi": [
    {
      "inputs": [],
      "stateMutability": "nonpayable",
      "type": "constructor"
    },
    {
      "anonymous": false,
      "inputs": [
        {
          "indexed": true,
          "internalType": "address",
          "name": "owner",
          "type": "address"
        },
        {
          "indexed": true,
          "internalType": "address",
          "name": "approved",
          "type": "address"
        },
        {
          "indexed": true,
          "internalType": "uint256",
          "name": "tokenId",
          "type": "uint256"
        }
      ],
      "name": "Approval",
      "type": "event"
    },
    {
      "anonymous": false,
      "inputs": [
        {
          "indexed": true,
          "internalType": "address",
          "name": "owner",
          "type": "address"
        },
        {
          "indexed": true,
          "internalType": "address",
          "name": "operator",
          "type": "address"
        },
        {
          "indexed": false,
          "internalType": "bool",
          "name": "approved",
          "type": "bool"
        }
      ],
      "name": "ApprovalForAll",
      "type": "event"
    },
    {
      "anonymous": false,
      "inputs": [
        {
          "indexed": true,
          "internalType": "address",
          "name": "from",
          "type": "address"
        },
        {
          "indexed": true,
          "internalType": "address",
          "name": "to",
          "type": "address"
        },
        {
          "indexed": true,
          "internalType": "uint256",
          "name": "tokenId",
          "type": "uint256"
        }
      ],
      "name": "Transfer",
      "type": "event"
    },
    {
      "inputs": [
        {
          "internalType": "uint256",
          "name": "",
          "type": "uint256"
        }
      ],
      "name": "_listed",
      "outputs": [
        {
          "internalType": "uint256",
          "name": "id",
          "type": "uint256"
        },
        {
          "internalType": "uint256",
          "name": "price",
          "type": "uint256"
        },
        {
          "internalType": "bool",
          "name": "isForSale",
          "type": "bool"
        }
      ],
      "stateMutability": "view",
      "type": "function",
      "constant": true
    },
    {
      "inputs": [
        {
          "internalType": "address",
          "name": "to",
          "type": "address"
        },
        {
          "internalType": "uint256",
          "name": "tokenId",
          "type": "uint256"
        }
      ],
      "name": "approve",
      "outputs": [],
      "stateMutability": "nonpayable",
      "type": "function"
    },
    {
      "inputs": [
        {
          "internalType": "address",
          "name": "owner",
          "type": "address"
        }
      ],
      "name": "balanceOf",
      "outputs": [
        {
          "internalType": "uint256",
          "name": "",
          "type": "uint256"
        }
      ],
      "stateMutability": "view",
      "type": "function",
      "constant": true
    },
    {
      "inputs": [
        {
          "internalType": "uint256",
          "name": "tokenId",
          "type": "uint256"
        }
      ],
      "name": "getApproved",
      "outputs": [
        {
          "internalType": "address",
          "name": "",
          "type": "address"
        }
      ],
      "stateMutability": "view",
      "type": "function",
      "constant": true
    },
    {
      "inputs": [
        {
          "internalType": "address",
          "name": "owner",
          "type": "address"
        },
        {
          "internalType": "address",
          "name": "operator",
          "type": "address"
        }
      ],
      "name": "isApprovedForAll",
      "outputs": [
        {
          "internalType": "bool",
          "name": "",
          "type": "bool"
        }
      ],
      "stateMutability": "view",
      "type": "function",
      "constant": true
    },
    {
      "inputs": [],
      "name": "name",
      "outputs": [
        {
          "internalType": "string",
          "name": "",
          "type": "string"
        }
      ],
      "stateMutability": "view",
      "type": "function",
      "constant": true
    },
    {
      "inputs": [
        {
          "internalType": "uint256",
          "name": "tokenId",
          "type": "uint256"
        }
      ],
      "name": "ownerOf",
      "outputs": [
        {
          "internalType": "address",
          "name": "",
          "type": "address"
        }
      ],
      "stateMutability": "view",
      "type": "function",
      "constant": true
    },
    {
      "inputs": [
        {
          "internalType": "address",
          "name": "from",
          "type": "address"
        },
        {
          "internalType": "address",
          "name": "to",
          "type": "address"
        },
        {
          "internalType": "uint256",
          "name": "tokenId",
          "type": "uint256"
        }
      ],
      "name": "safeTransferFrom",
      "outputs": [],
      "stateMutability": "nonpayable",
      "type": "function"
    },
    {
      "inputs": [
        {
          "internalType": "address",
          "name": "from",
          "type": "address"
        },
        {
          "internalType": "address",
          "name": "to",
          "type": "address"
        },
        {
          "internalType": "uint256",
          "name": "tokenId",
          "type": "uint256"
        },
        {
          "internalType": "bytes",
          "name": "_data",
          "type": "bytes"
        }
      ],
      "name": "safeTransferFrom",
      "outputs": [],
      "stateMutability": "nonpayable",
      "type": "function"
    },
    {
      "inputs": [
        {
          "internalType": "address",
          "name": "operator",
          "type": "address"
        },
        {
          "internalType": "bool",
          "name": "approved",
          "type": "bool"
        }
      ],
      "name": "setApprovalForAll",
      "outputs": [],
      "stateMutability": "nonpayable",
      "type": "function"
    },
    {
      "inputs": [
        {
          "internalType": "bytes4",
          "name": "interfaceId",
          "type": "bytes4"
        }
      ],
      "name": "supportsInterface",
      "outputs": [
        {
          "internalType": "bool",
          "name": "",
          "type": "bool"
        }
      ],
      "stateMutability": "view",
      "type": "function",
      "constant": true
    },
    {
      "inputs": [],
      "name": "symbol",
      "outputs": [
        {
          "internalType": "string",
          "name": "",
          "type": "string"
        }
      ],
      "stateMutability": "view",
      "type": "function",
      "constant": true
    },
    {
      "inputs": [
        {
          "internalType": "uint256",
          "name": "tokenId",
          "type": "uint256"
        }
      ],
      "name": "tokenURI",
      "outputs": [
        {
          "internalType": "string",
          "name": "",
          "type": "string"
        }
      ],
      "stateMutability": "view",
      "type": "function",
      "constant": true
    },
    {
      "inputs": [
        {
          "internalType": "address",
          "name": "from",
          "type": "address"
        },
        {
          "internalType": "address",
          "name": "to",
          "type": "address"
        },
        {
          "internalType": "uint256",
          "name": "tokenId",
          "type": "uint256"
        }
      ],
      "name": "transferFrom",
      "outputs": [],
      "stateMutability": "nonpayable",
      "type": "function"
    },
    {
      "inputs": [
        {
          "internalType": "uint256",
          "name": "nftId",
          "type": "uint256"
        }
      ],
      "name": "getNftPrice",
      "outputs": [
        {
          "internalType": "uint256",
          "name": "",
          "type": "uint256"
        }
      ],
      "stateMutability": "view",
      "type": "function",
      "constant": true
    },
    {
      "inputs": [
        {
          "internalType": "uint256",
          "name": "nftId",
          "type": "uint256"
        }
      ],
      "name": "markAsSold",
      "outputs": [],
      "stateMutability": "nonpayable",
      "type": "function"
    },
    {
      "inputs": [],
      "name": "getAllNfts",
      "outputs": [
        {
          "components": [
            {
              "internalType": "uint256",
              "name": "id",
              "type": "uint256"
            },
            {
              "internalType": "uint256",
              "name": "price",
              "type": "uint256"
            },
            {
              "internalType": "bool",
              "name": "isForSale",
              "type": "bool"
            }
          ],
          "internalType": "struct SimpleNFT.NFT_Sale[]",
          "name": "",
          "type": "tuple[]"
        }
      ],
      "stateMutability": "view",
      "type": "function",
      "constant": true
    },
    {
      "inputs": [
        {
          "internalType": "address",
          "name": "newOwner",
          "type": "address"
        },
        {
          "internalType": "uint256",
          "name": "nftId",
          "type": "uint256"
        }
      ],
      "name": "changePartialOwner",
      "outputs": [],
      "stateMutability": "nonpayable",
      "type": "function"
    },
    {
      "inputs": [
        {
          "internalType": "string",
          "name": "tokenURI",
          "type": "string"
        },
        {
          "internalType": "uint256",
          "name": "price",
          "type": "uint256"
        },
        {
          "internalType": "address",
          "name": "custodian",
          "type": "address"
        }
      ],
      "name": "mintNft",
      "outputs": [],
      "stateMutability": "nonpayable",
      "type": "function"
    },
    {
      "inputs": [
        {
          "internalType": "address",
          "name": "currentOwner",
          "type": "address"
        },
        {
          "internalType": "address",
          "name": "newOwner",
          "type": "address"
        },
        {
          "internalType": "uint256",
          "name": "nftId",
          "type": "uint256"
        }
      ],
      "name": "transferNft",
      "outputs": [],
      "stateMutability": "nonpayable",
      "type": "function"
    }
  ],
  "bytecode": "0x60806040523480156200001157600080fd5b506040518060400160405280600581526020017f4d794e46540000000000000000000000000000000000000000000000000000008152506040518060400160405280600481526020017f4d4e465400000000000000000000000000000000000000000000000000000000815250816000908051906020019062000096929190620000b8565b508060019080519060200190620000af929190620000b8565b505050620001cd565b828054620000c69062000197565b90600052602060002090601f016020900481019282620000ea576000855562000136565b82601f106200010557805160ff191683800117855562000136565b8280016001018555821562000136579182015b828111156200013557825182559160200191906001019062000118565b5b50905062000145919062000149565b5090565b5b80821115620001645760008160009055506001016200014a565b5090565b7f4e487b7100000000000000000000000000000000000000000000000000000000600052602260045260246000fd5b60006002820490506001821680620001b057607f821691505b60208210811415620001c757620001c662000168565b5b50919050565b6130ec80620001dd6000396000f3fe608060405234801561001057600080fd5b506004361061012c5760003560e01c80637bf0989a116100ad578063d11eccd611610071578063d11eccd614610353578063e985e9c51461036f578063ec22b70d1461039f578063ee6d644e146103d1578063f304f39f146103ed5761012c565b80637bf0989a1461029d57806395d89b41146102cd578063a22cb465146102eb578063b88d4fde14610307578063c87b56dd146103235761012c565b80632931a108116100f45780632931a108146101e757806342842e0e146102035780636352211e1461021f57806370a082311461024f578063732e8d731461027f5761012c565b806301ffc9a71461013157806306fdde0314610161578063081812fc1461017f578063095ea7b3146101af57806323b872dd146101cb575b600080fd5b61014b60048036038101906101469190611cd3565b610409565b6040516101589190611d1b565b60405180910390f35b6101696104eb565b6040516101769190611dcf565b60405180910390f35b61019960048036038101906101949190611e27565b61057d565b6040516101a69190611e95565b60405180910390f35b6101c960048036038101906101c49190611edc565b610602565b005b6101e560048036038101906101e09190611f1c565b61071a565b005b61020160048036038101906101fc9190611e27565b61077a565b005b61021d60048036038101906102189190611f1c565b6107c1565b005b61023960048036038101906102349190611e27565b6107e1565b6040516102469190611e95565b60405180910390f35b61026960048036038101906102649190611f6f565b610893565b6040516102769190611fab565b60405180910390f35b61028761094b565b60405161029491906120d5565b60405180910390f35b6102b760048036038101906102b29190611e27565b6109d9565b6040516102c49190611fab565b60405180910390f35b6102d5610a0d565b6040516102e29190611dcf565b60405180910390f35b61030560048036038101906103009190612123565b610a9f565b005b610321600480360381019061031c9190612298565b610c20565b005b61033d60048036038101906103389190611e27565b610c82565b60405161034a9190611dcf565b60405180910390f35b61036d60048036038101906103689190611f1c565b610dd4565b005b6103896004803603810190610384919061231b565b610de4565b6040516103969190611d1b565b60405180910390f35b6103b960048036038101906103b49190611e27565b610e78565b6040516103c89392919061235b565b60405180910390f35b6103eb60048036038101906103e69190611edc565b610ebf565b005b61040760048036038101906104029190612433565b610f29565b005b60007f80ac58cd000000000000000000000000000000000000000000000000000000007bffffffffffffffffffffffffffffffffffffffffffffffffffffffff1916827bffffffffffffffffffffffffffffffffffffffffffffffffffffffff191614806104d457507f5b5e139f000000000000000000000000000000000000000000000000000000007bffffffffffffffffffffffffffffffffffffffffffffffffffffffff1916827bffffffffffffffffffffffffffffffffffffffffffffffffffffffff1916145b806104e457506104e382610fea565b5b9050919050565b6060600080546104fa906124d1565b80601f0160208091040260200160405190810160405280929190818152602001828054610526906124d1565b80156105735780601f1061054857610100808354040283529160200191610573565b820191906000526020600020905b81548152906001019060200180831161055657829003601f168201915b5050505050905090565b600061058882611054565b6105c7576040517f08c379a00000000000000000000000000000000000000000000000000000000081526004016105be90612575565b60405180910390fd5b6004600083815260200190815260200160002060009054906101000a900473ffffffffffffffffffffffffffffffffffffffff169050919050565b600061060d826107e1565b90508073ffffffffffffffffffffffffffffffffffffffff168373ffffffffffffffffffffffffffffffffffffffff16141561067e576040517f08c379a000000000000000000000000000000000000000000000000000000000815260040161067590612607565b60405180910390fd5b8073ffffffffffffffffffffffffffffffffffffffff1661069d6110c0565b73ffffffffffffffffffffffffffffffffffffffff1614806106cc57506106cb816106c66110c0565b610de4565b5b61070b576040517f08c379a000000000000000000000000000000000000000000000000000000000815260040161070290612699565b60405180910390fd5b61071583836110c8565b505050565b61072b6107256110c0565b82611181565b61076a576040517f08c379a00000000000000000000000000000000000000000000000000000000081526004016107619061272b565b60405180910390fd5b61077583838361125f565b505050565b6000600882815481106107905761078f61274b565b5b9060005260206000209060030201905060008160020160006101000a81548160ff0219169083151502179055505050565b6107dc83838360405180602001604052806000815250610c20565b505050565b6000806002600084815260200190815260200160002060009054906101000a900473ffffffffffffffffffffffffffffffffffffffff169050600073ffffffffffffffffffffffffffffffffffffffff168173ffffffffffffffffffffffffffffffffffffffff16141561088a576040517f08c379a0000000000000000000000000000000000000000000000000000000008152600401610881906127ec565b60405180910390fd5b80915050919050565b60008073ffffffffffffffffffffffffffffffffffffffff168273ffffffffffffffffffffffffffffffffffffffff161415610904576040517f08c379a00000000000000000000000000000000000000000000000000000000081526004016108fb9061287e565b60405180910390fd5b600360008373ffffffffffffffffffffffffffffffffffffffff1673ffffffffffffffffffffffffffffffffffffffff168152602001908152602001600020549050919050565b60606008805480602002602001604051908101604052809291908181526020016000905b828210156109d0578382906000526020600020906003020160405180606001604052908160008201548152602001600182015481526020016002820160009054906101000a900460ff1615151515815250508152602001906001019061096f565b50505050905090565b600080600883815481106109f0576109ef61274b565b5b906000526020600020906003020190508060010154915050919050565b606060018054610a1c906124d1565b80601f0160208091040260200160405190810160405280929190818152602001828054610a48906124d1565b8015610a955780601f10610a6a57610100808354040283529160200191610a95565b820191906000526020600020905b815481529060010190602001808311610a7857829003601f168201915b5050505050905090565b610aa76110c0565b73ffffffffffffffffffffffffffffffffffffffff168273ffffffffffffffffffffffffffffffffffffffff161415610b15576040517f08c379a0000000000000000000000000000000000000000000000000000000008152600401610b0c906128ea565b60405180910390fd5b8060056000610b226110c0565b73ffffffffffffffffffffffffffffffffffffffff1673ffffffffffffffffffffffffffffffffffffffff16815260200190815260200160002060008473ffffffffffffffffffffffffffffffffffffffff1673ffffffffffffffffffffffffffffffffffffffff16815260200190815260200160002060006101000a81548160ff0219169083151502179055508173ffffffffffffffffffffffffffffffffffffffff16610bcf6110c0565b73ffffffffffffffffffffffffffffffffffffffff167f17307eab39ab6107e8899845ad3d59bd9653f200f220920489ca2b5937696c3183604051610c149190611d1b565b60405180910390a35050565b610c31610c2b6110c0565b83611181565b610c70576040517f08c379a0000000000000000000000000000000000000000000000000000000008152600401610c679061272b565b60405180910390fd5b610c7c848484846114bb565b50505050565b6060610c8d82611054565b610ccc576040517f08c379a0000000000000000000000000000000000000000000000000000000008152600401610cc39061297c565b60405180910390fd5b6000600660008481526020019081526020016000208054610cec906124d1565b80601f0160208091040260200160405190810160405280929190818152602001828054610d18906124d1565b8015610d655780601f10610d3a57610100808354040283529160200191610d65565b820191906000526020600020905b815481529060010190602001808311610d4857829003601f168201915b505050505090506000610d76611517565b9050600081511415610d8c578192505050610dcf565b600082511115610dc1578082604051602001610da99291906129d8565b60405160208183030381529060405292505050610dcf565b610dca8461152e565b925050505b919050565b610ddf8383836107c1565b505050565b6000600560008473ffffffffffffffffffffffffffffffffffffffff1673ffffffffffffffffffffffffffffffffffffffff16815260200190815260200160002060008373ffffffffffffffffffffffffffffffffffffffff1673ffffffffffffffffffffffffffffffffffffffff16815260200190815260200160002060009054906101000a900460ff16905092915050565b60088181548110610e8857600080fd5b90600052602060002090600302016000915090508060000154908060010154908060020160009054906101000a900460ff16905083565b8173ffffffffffffffffffffffffffffffffffffffff163373ffffffffffffffffffffffffffffffffffffffff167f17307eab39ab6107e8899845ad3d59bd9653f200f220920489ca2b5937696c316001604051610f1d9190611d1b565b60405180910390a35050565b6000610f3560076115d5565b9050610f4133826115e3565b610f4b8185611601565b610f558282610602565b600060405180606001604052808381526020018581526020016001151581525090506008819080600181540180825580915050600190039060005260206000209060030201600090919091909150600082015181600001556020820151816001015560408201518160020160006101000a81548160ff0219169083151502179055505050610fe36007611675565b5050505050565b60007f01ffc9a7000000000000000000000000000000000000000000000000000000007bffffffffffffffffffffffffffffffffffffffffffffffffffffffff1916827bffffffffffffffffffffffffffffffffffffffffffffffffffffffff1916149050919050565b60008073ffffffffffffffffffffffffffffffffffffffff166002600084815260200190815260200160002060009054906101000a900473ffffffffffffffffffffffffffffffffffffffff1673ffffffffffffffffffffffffffffffffffffffff1614159050919050565b600033905090565b816004600083815260200190815260200160002060006101000a81548173ffffffffffffffffffffffffffffffffffffffff021916908373ffffffffffffffffffffffffffffffffffffffff160217905550808273ffffffffffffffffffffffffffffffffffffffff1661113b836107e1565b73ffffffffffffffffffffffffffffffffffffffff167f8c5be1e5ebec7d5bd14f71427d1e84f3dd0314c0f7b2291e5b200ac8c7c3b92560405160405180910390a45050565b600061118c82611054565b6111cb576040517f08c379a00000000000000000000000000000000000000000000000000000000081526004016111c290612a6e565b60405180910390fd5b60006111d6836107e1565b90508073ffffffffffffffffffffffffffffffffffffffff168473ffffffffffffffffffffffffffffffffffffffff16148061124557508373ffffffffffffffffffffffffffffffffffffffff1661122d8461057d565b73ffffffffffffffffffffffffffffffffffffffff16145b8061125657506112558185610de4565b5b91505092915050565b8273ffffffffffffffffffffffffffffffffffffffff1661127f826107e1565b73ffffffffffffffffffffffffffffffffffffffff16146112d5576040517f08c379a00000000000000000000000000000000000000000000000000000000081526004016112cc90612b00565b60405180910390fd5b600073ffffffffffffffffffffffffffffffffffffffff168273ffffffffffffffffffffffffffffffffffffffff161415611345576040517f08c379a000000000000000000000000000000000000000000000000000000000815260040161133c90612b92565b60405180910390fd5b61135083838361168b565b61135b6000826110c8565b6001600360008573ffffffffffffffffffffffffffffffffffffffff1673ffffffffffffffffffffffffffffffffffffffff16815260200190815260200160002060008282546113ab9190612be1565b925050819055506001600360008473ffffffffffffffffffffffffffffffffffffffff1673ffffffffffffffffffffffffffffffffffffffff16815260200190815260200160002060008282546114029190612c15565b92505081905550816002600083815260200190815260200160002060006101000a81548173ffffffffffffffffffffffffffffffffffffffff021916908373ffffffffffffffffffffffffffffffffffffffff160217905550808273ffffffffffffffffffffffffffffffffffffffff168473ffffffffffffffffffffffffffffffffffffffff167fddf252ad1be2c89b69c2b068fc378daa952ba7f163c4a11628f55a4df523b3ef60405160405180910390a4505050565b6114c684848461125f565b6114d284848484611690565b611511576040517f08c379a000000000000000000000000000000000000000000000000000000000815260040161150890612cdd565b60405180910390fd5b50505050565b606060405180602001604052806000815250905090565b606061153982611054565b611578576040517f08c379a000000000000000000000000000000000000000000000000000000000815260040161156f90612d6f565b60405180910390fd5b6000611582611517565b905060008151116115a257604051806020016040528060008152506115cd565b806115ac84611827565b6040516020016115bd9291906129d8565b6040516020818303038152906040525b915050919050565b600081600001549050919050565b6115fd828260405180602001604052806000815250611988565b5050565b61160a82611054565b611649576040517f08c379a000000000000000000000000000000000000000000000000000000000815260040161164090612e01565b60405180910390fd5b80600660008481526020019081526020016000209080519060200190611670929190611bc4565b505050565b6001816000016000828254019250508190555050565b505050565b60006116b18473ffffffffffffffffffffffffffffffffffffffff166119e3565b1561181a578373ffffffffffffffffffffffffffffffffffffffff1663150b7a026116da6110c0565b8786866040518563ffffffff1660e01b81526004016116fc9493929190612e76565b602060405180830381600087803b15801561171657600080fd5b505af192505050801561174757506040513d601f19601f820116820180604052508101906117449190612ed7565b60015b6117ca573d8060008114611777576040519150601f19603f3d011682016040523d82523d6000602084013e61177c565b606091505b506000815114156117c2576040517f08c379a00000000000000000000000000000000000000000000000000000000081526004016117b990612cdd565b60405180910390fd5b805181602001fd5b63150b7a0260e01b7bffffffffffffffffffffffffffffffffffffffffffffffffffffffff1916817bffffffffffffffffffffffffffffffffffffffffffffffffffffffff19161491505061181f565b600190505b949350505050565b6060600082141561186f576040518060400160405280600181526020017f30000000000000000000000000000000000000000000000000000000000000008152509050611983565b600082905060005b600082146118a157808061188a90612f04565b915050600a8261189a9190612f7c565b9150611877565b60008167ffffffffffffffff8111156118bd576118bc61216d565b5b6040519080825280601f01601f1916602001820160405280156118ef5781602001600182028036833780820191505090505b5090505b6000851461197c576001826119089190612be1565b9150600a856119179190612fad565b60306119239190612c15565b60f81b8183815181106119395761193861274b565b5b60200101907effffffffffffffffffffffffffffffffffffffffffffffffffffffffffffff1916908160001a905350600a856119759190612f7c565b94506118f3565b8093505050505b919050565b61199283836119f6565b61199f6000848484611690565b6119de576040517f08c379a00000000000000000000000000000000000000000000000000000000081526004016119d590612cdd565b60405180910390fd5b505050565b600080823b905060008111915050919050565b600073ffffffffffffffffffffffffffffffffffffffff168273ffffffffffffffffffffffffffffffffffffffff161415611a66576040517f08c379a0000000000000000000000000000000000000000000000000000000008152600401611a5d9061302a565b60405180910390fd5b611a6f81611054565b15611aaf576040517f08c379a0000000000000000000000000000000000000000000000000000000008152600401611aa690613096565b60405180910390fd5b611abb6000838361168b565b6001600360008473ffffffffffffffffffffffffffffffffffffffff1673ffffffffffffffffffffffffffffffffffffffff1681526020019081526020016000206000828254611b0b9190612c15565b92505081905550816002600083815260200190815260200160002060006101000a81548173ffffffffffffffffffffffffffffffffffffffff021916908373ffffffffffffffffffffffffffffffffffffffff160217905550808273ffffffffffffffffffffffffffffffffffffffff16600073ffffffffffffffffffffffffffffffffffffffff167fddf252ad1be2c89b69c2b068fc378daa952ba7f163c4a11628f55a4df523b3ef60405160405180910390a45050565b828054611bd0906124d1565b90600052602060002090601f016020900481019282611bf25760008555611c39565b82601f10611c0b57805160ff1916838001178555611c39565b82800160010185558215611c39579182015b82811115611c38578251825591602001919060010190611c1d565b5b509050611c469190611c4a565b5090565b5b80821115611c63576000816000905550600101611c4b565b5090565b6000604051905090565b600080fd5b600080fd5b60007fffffffff0000000000000000000000000000000000000000000000000000000082169050919050565b611cb081611c7b565b8114611cbb57600080fd5b50565b600081359050611ccd81611ca7565b92915050565b600060208284031215611ce957611ce8611c71565b5b6000611cf784828501611cbe565b91505092915050565b60008115159050919050565b611d1581611d00565b82525050565b6000602082019050611d306000830184611d0c565b92915050565b600081519050919050565b600082825260208201905092915050565b60005b83811015611d70578082015181840152602081019050611d55565b83811115611d7f576000848401525b50505050565b6000601f19601f8301169050919050565b6000611da182611d36565b611dab8185611d41565b9350611dbb818560208601611d52565b611dc481611d85565b840191505092915050565b60006020820190508181036000830152611de98184611d96565b905092915050565b6000819050919050565b611e0481611df1565b8114611e0f57600080fd5b50565b600081359050611e2181611dfb565b92915050565b600060208284031215611e3d57611e3c611c71565b5b6000611e4b84828501611e12565b91505092915050565b600073ffffffffffffffffffffffffffffffffffffffff82169050919050565b6000611e7f82611e54565b9050919050565b611e8f81611e74565b82525050565b6000602082019050611eaa6000830184611e86565b92915050565b611eb981611e74565b8114611ec457600080fd5b50565b600081359050611ed681611eb0565b92915050565b60008060408385031215611ef357611ef2611c71565b5b6000611f0185828601611ec7565b9250506020611f1285828601611e12565b9150509250929050565b600080600060608486031215611f3557611f34611c71565b5b6000611f4386828701611ec7565b9350506020611f5486828701611ec7565b9250506040611f6586828701611e12565b9150509250925092565b600060208284031215611f8557611f84611c71565b5b6000611f9384828501611ec7565b91505092915050565b611fa581611df1565b82525050565b6000602082019050611fc06000830184611f9c565b92915050565b600081519050919050565b600082825260208201905092915050565b6000819050602082019050919050565b611ffb81611df1565b82525050565b61200a81611d00565b82525050565b6060820160008201516120266000850182611ff2565b5060208201516120396020850182611ff2565b50604082015161204c6040850182612001565b50505050565b600061205e8383612010565b60608301905092915050565b6000602082019050919050565b600061208282611fc6565b61208c8185611fd1565b935061209783611fe2565b8060005b838110156120c85781516120af8882612052565b97506120ba8361206a565b92505060018101905061209b565b5085935050505092915050565b600060208201905081810360008301526120ef8184612077565b905092915050565b61210081611d00565b811461210b57600080fd5b50565b60008135905061211d816120f7565b92915050565b6000806040838503121561213a57612139611c71565b5b600061214885828601611ec7565b92505060206121598582860161210e565b9150509250929050565b600080fd5b600080fd5b7f4e487b7100000000000000000000000000000000000000000000000000000000600052604160045260246000fd5b6121a582611d85565b810181811067ffffffffffffffff821117156121c4576121c361216d565b5b80604052505050565b60006121d7611c67565b90506121e3828261219c565b919050565b600067ffffffffffffffff8211156122035761220261216d565b5b61220c82611d85565b9050602081019050919050565b82818337600083830152505050565b600061223b612236846121e8565b6121cd565b90508281526020810184848401111561225757612256612168565b5b612262848285612219565b509392505050565b600082601f83011261227f5761227e612163565b5b813561228f848260208601612228565b91505092915050565b600080600080608085870312156122b2576122b1611c71565b5b60006122c087828801611ec7565b94505060206122d187828801611ec7565b93505060406122e287828801611e12565b925050606085013567ffffffffffffffff81111561230357612302611c76565b5b61230f8782880161226a565b91505092959194509250565b6000806040838503121561233257612331611c71565b5b600061234085828601611ec7565b925050602061235185828601611ec7565b9150509250929050565b60006060820190506123706000830186611f9c565b61237d6020830185611f9c565b61238a6040830184611d0c565b949350505050565b600067ffffffffffffffff8211156123ad576123ac61216d565b5b6123b682611d85565b9050602081019050919050565b60006123d66123d184612392565b6121cd565b9050828152602081018484840111156123f2576123f1612168565b5b6123fd848285612219565b509392505050565b600082601f83011261241a57612419612163565b5b813561242a8482602086016123c3565b91505092915050565b60008060006060848603121561244c5761244b611c71565b5b600084013567ffffffffffffffff81111561246a57612469611c76565b5b61247686828701612405565b935050602061248786828701611e12565b925050604061249886828701611ec7565b9150509250925092565b7f4e487b7100000000000000000000000000000000000000000000000000000000600052602260045260246000fd5b600060028204905060018216806124e957607f821691505b602082108114156124fd576124fc6124a2565b5b50919050565b7f4552433732313a20617070726f76656420717565727920666f72206e6f6e657860008201527f697374656e7420746f6b656e0000000000000000000000000000000000000000602082015250565b600061255f602c83611d41565b915061256a82612503565b604082019050919050565b6000602082019050818103600083015261258e81612552565b9050919050565b7f4552433732313a20617070726f76616c20746f2063757272656e74206f776e6560008201527f7200000000000000000000000000000000000000000000000000000000000000602082015250565b60006125f1602183611d41565b91506125fc82612595565b604082019050919050565b60006020820190508181036000830152612620816125e4565b9050919050565b7f4552433732313a20617070726f76652063616c6c6572206973206e6f74206f7760008201527f6e6572206e6f7220617070726f76656420666f7220616c6c0000000000000000602082015250565b6000612683603883611d41565b915061268e82612627565b604082019050919050565b600060208201905081810360008301526126b281612676565b9050919050565b7f4552433732313a207472616e736665722063616c6c6572206973206e6f74206f60008201527f776e6572206e6f7220617070726f766564000000000000000000000000000000602082015250565b6000612715603183611d41565b9150612720826126b9565b604082019050919050565b6000602082019050818103600083015261274481612708565b9050919050565b7f4e487b7100000000000000000000000000000000000000000000000000000000600052603260045260246000fd5b7f4552433732313a206f776e657220717565727920666f72206e6f6e657869737460008201527f656e7420746f6b656e0000000000000000000000000000000000000000000000602082015250565b60006127d6602983611d41565b91506127e18261277a565b604082019050919050565b60006020820190508181036000830152612805816127c9565b9050919050565b7f4552433732313a2062616c616e636520717565727920666f7220746865207a6560008201527f726f206164647265737300000000000000000000000000000000000000000000602082015250565b6000612868602a83611d41565b91506128738261280c565b604082019050919050565b600060208201905081810360008301526128978161285b565b9050919050565b7f4552433732313a20617070726f766520746f2063616c6c657200000000000000600082015250565b60006128d4601983611d41565b91506128df8261289e565b602082019050919050565b60006020820190508181036000830152612903816128c7565b9050919050565b7f45524337323155524953746f726167653a2055524920717565727920666f722060008201527f6e6f6e6578697374656e7420746f6b656e000000000000000000000000000000602082015250565b6000612966603183611d41565b91506129718261290a565b604082019050919050565b6000602082019050818103600083015261299581612959565b9050919050565b600081905092915050565b60006129b282611d36565b6129bc818561299c565b93506129cc818560208601611d52565b80840191505092915050565b60006129e482856129a7565b91506129f082846129a7565b91508190509392505050565b7f4552433732313a206f70657261746f7220717565727920666f72206e6f6e657860008201527f697374656e7420746f6b656e0000000000000000000000000000000000000000602082015250565b6000612a58602c83611d41565b9150612a63826129fc565b604082019050919050565b60006020820190508181036000830152612a8781612a4b565b9050919050565b7f4552433732313a207472616e73666572206f6620746f6b656e2074686174206960008201527f73206e6f74206f776e0000000000000000000000000000000000000000000000602082015250565b6000612aea602983611d41565b9150612af582612a8e565b604082019050919050565b60006020820190508181036000830152612b1981612add565b9050919050565b7f4552433732313a207472616e7366657220746f20746865207a65726f2061646460008201527f7265737300000000000000000000000000000000000000000000000000000000602082015250565b6000612b7c602483611d41565b9150612b8782612b20565b604082019050919050565b60006020820190508181036000830152612bab81612b6f565b9050919050565b7f4e487b7100000000000000000000000000000000000000000000000000000000600052601160045260246000fd5b6000612bec82611df1565b9150612bf783611df1565b925082821015612c0a57612c09612bb2565b5b828203905092915050565b6000612c2082611df1565b9150612c2b83611df1565b9250827fffffffffffffffffffffffffffffffffffffffffffffffffffffffffffffffff03821115612c6057612c5f612bb2565b5b828201905092915050565b7f4552433732313a207472616e7366657220746f206e6f6e20455243373231526560008201527f63656976657220696d706c656d656e7465720000000000000000000000000000602082015250565b6000612cc7603283611d41565b9150612cd282612c6b565b604082019050919050565b60006020820190508181036000830152612cf681612cba565b9050919050565b7f4552433732314d657461646174613a2055524920717565727920666f72206e6f60008201527f6e6578697374656e7420746f6b656e0000000000000000000000000000000000602082015250565b6000612d59602f83611d41565b9150612d6482612cfd565b604082019050919050565b60006020820190508181036000830152612d8881612d4c565b9050919050565b7f45524337323155524953746f726167653a2055524920736574206f66206e6f6e60008201527f6578697374656e7420746f6b656e000000000000000000000000000000000000602082015250565b6000612deb602e83611d41565b9150612df682612d8f565b604082019050919050565b60006020820190508181036000830152612e1a81612dde565b9050919050565b600081519050919050565b600082825260208201905092915050565b6000612e4882612e21565b612e528185612e2c565b9350612e62818560208601611d52565b612e6b81611d85565b840191505092915050565b6000608082019050612e8b6000830187611e86565b612e986020830186611e86565b612ea56040830185611f9c565b8181036060830152612eb78184612e3d565b905095945050505050565b600081519050612ed181611ca7565b92915050565b600060208284031215612eed57612eec611c71565b5b6000612efb84828501612ec2565b91505092915050565b6000612f0f82611df1565b91507fffffffffffffffffffffffffffffffffffffffffffffffffffffffffffffffff821415612f4257612f41612bb2565b5b600182019050919050565b7f4e487b7100000000000000000000000000000000000000000000000000000000600052601260045260246000fd5b6000612f8782611df1565b9150612f9283611df1565b925082612fa257612fa1612f4d565b5b828204905092915050565b6000612fb882611df1565b9150612fc383611df1565b925082612fd357612fd2612f4d565b5b828206905092915050565b7f4552433732313a206d696e7420746f20746865207a65726f2061646472657373600082015250565b6000613014602083611d41565b915061301f82612fde565b602082019050919050565b6000602082019050818103600083015261304381613007565b9050919050565b7f4552433732313a20746f6b656e20616c7265616479206d696e74656400000000600082015250565b6000613080601c83611d41565b915061308b8261304a565b602082019050919050565b600060208201905081810360008301526130af81613073565b905091905056fea2646970667358221220dc9dd670b24eca0400208dacd54fa9965e0c42aefab1c61e88b4ab96395dd0e064736f6c63430008090033",
  "immutableReferences": {},
  "source": "// SPDX-License-Identifier: MIT\r\npragma solidity ^0.8.9;\r\n\r\nimport \"@openzeppelin/contracts/token/ERC721/extensions/ERC721URIStorage.sol\";\r\nimport \"@openzeppelin/contracts/utils/Counters.sol\";\r\n\r\ncontract SimpleNFT is ERC721URIStorage {\r\n    using Counters for Counters.Counter;\r\n    Counters.Counter private _tokenIds;\r\n\r\n    NFT_Sale[] public _listed;\r\n\r\n    struct NFT_Sale {\r\n        uint256 id;\r\n        uint256 price;\r\n        bool isForSale;\r\n    }\r\n\r\n    constructor() ERC721(\"MyNFT\", \"MNFT\") {}\r\n\r\n    function getNftPrice(uint256 nftId) external view returns (uint256) {\r\n        NFT_Sale storage nft = _listed[nftId];\r\n        return nft.price;\r\n    }\r\n\r\n    function markAsSold(uint256 nftId) external {\r\n        NFT_Sale storage nft = _listed[nftId];\r\n        nft.isForSale = false;\r\n    }\r\n\r\n    function getAllNfts() public view returns (NFT_Sale[] memory) {\r\n        return _listed;\r\n    }\r\n\r\n    function changePartialOwner(address newOwner, uint256 nftId) public {\r\n        // _mint(newOwner, nftId);\r\n        emit ApprovalForAll(msg.sender, newOwner, true);\r\n    }\r\n\r\n    function mintNft(\r\n        string memory tokenURI,\r\n        uint256 price,\r\n        address custodian\r\n    ) public {\r\n        uint256 newItemId = _tokenIds.current();\r\n        _safeMint(msg.sender, newItemId);\r\n        _setTokenURI(newItemId, tokenURI);\r\n\r\n        approve(custodian, newItemId);\r\n        NFT_Sale memory sale = NFT_Sale(newItemId, price, true);\r\n        _listed.push(sale);\r\n        _tokenIds.increment();\r\n    }\r\n\r\n    function transferNft(\r\n        address currentOwner,\r\n        address newOwner,\r\n        uint256 nftId\r\n    ) external {\r\n        safeTransferFrom(currentOwner, newOwner, nftId);\r\n    }\r\n}\r\n",
  "sourcePath": "E:\\Nft-marketplace\\simple-nft\\contracts\\SimpleNFT.sol",
  "compiler": {
    "name": "solc",
    "version": "0.8.9+commit.e5eed63a.Emscripten.clang"
  },
  "schemaVersion": "3.4.3",
  "updatedAt": "2021-10-26T20:11:07.526Z",
  "networkType": "ethereum",
  "devdoc": {
    "kind": "dev",
    "methods": {
      "approve(address,uint256)": {
        "details": "See {IERC721-approve}."
      },
      "balanceOf(address)": {
        "details": "See {IERC721-balanceOf}."
      },
      "getApproved(uint256)": {
        "details": "See {IERC721-getApproved}."
      },
      "isApprovedForAll(address,address)": {
        "details": "See {IERC721-isApprovedForAll}."
      },
      "name()": {
        "details": "See {IERC721Metadata-name}."
      },
      "ownerOf(uint256)": {
        "details": "See {IERC721-ownerOf}."
      },
      "safeTransferFrom(address,address,uint256)": {
        "details": "See {IERC721-safeTransferFrom}."
      },
      "safeTransferFrom(address,address,uint256,bytes)": {
        "details": "See {IERC721-safeTransferFrom}."
      },
      "setApprovalForAll(address,bool)": {
        "details": "See {IERC721-setApprovalForAll}."
      },
      "supportsInterface(bytes4)": {
        "details": "See {IERC165-supportsInterface}."
      },
      "symbol()": {
        "details": "See {IERC721Metadata-symbol}."
      },
      "tokenURI(uint256)": {
        "details": "See {IERC721Metadata-tokenURI}."
      },
      "transferFrom(address,address,uint256)": {
        "details": "See {IERC721-transferFrom}."
      }
    },
    "version": 1
  },
  "userdoc": {
    "kind": "user",
    "methods": {},
    "version": 1
  }
}