{
  "contractName": "SimpleNFTCustodian",
  "abi": [
    {
      "inputs": [
        {
          "internalType": "uint256",
          "name": "",
          "type": "uint256"
        }
      ],
      "name": "partialOwnerDataArray",
      "outputs": [
        {
          "internalType": "uint256",
          "name": "nftId",
          "type": "uint256"
        }
      ],
      "stateMutability": "view",
      "type": "function",
      "constant": true
    },
    {
      "inputs": [],
      "name": "simpleNft",
      "outputs": [
        {
          "internalType": "contract SimpleNFT",
          "name": "",
          "type": "address"
        }
      ],
      "stateMutability": "view",
      "type": "function",
      "constant": true
    },
    {
      "inputs": [
        {
          "internalType": "contract SimpleNFT",
          "name": "instanceAddress",
          "type": "address"
        }
      ],
      "name": "setSimpleNftAddress",
      "outputs": [],
      "stateMutability": "nonpayable",
      "type": "function"
    },
    {
      "inputs": [
        {
          "internalType": "address[]",
          "name": "partialOwnersArray",
          "type": "address[]"
        },
        {
          "internalType": "uint256",
          "name": "nftId",
          "type": "uint256"
        }
      ],
      "name": "setPartialOwnership",
      "outputs": [],
      "stateMutability": "nonpayable",
      "type": "function"
    },
    {
      "inputs": [
        {
          "internalType": "uint256",
          "name": "nftId",
          "type": "uint256"
        }
      ],
      "name": "getPartialOwnershipAddressById",
      "outputs": [
        {
          "internalType": "address[]",
          "name": "",
          "type": "address[]"
        }
      ],
      "stateMutability": "view",
      "type": "function",
      "constant": true
    },
    {
      "inputs": [
        {
          "internalType": "uint256",
          "name": "nftId",
          "type": "uint256"
        }
      ],
      "name": "buyNft",
      "outputs": [],
      "stateMutability": "payable",
      "type": "function",
      "payable": true
    }
  ],
  "bytecode": "0x608060405234801561001057600080fd5b50610ec1806100206000396000f3fe6080604052600436106100555760003560e01c806308959b8f1461005a578063243adbdd1461009757806357989169146100b3578063d592d727146100dc578063ef5118a614610119578063fa3bf26614610142575b600080fd5b34801561006657600080fd5b50610081600480360381019061007c9190610841565b61016d565b60405161008e919061095e565b60405180910390f35b6100b160048036038101906100ac9190610841565b610278565b005b3480156100bf57600080fd5b506100da60048036038101906100d591906109be565b61064e565b005b3480156100e857600080fd5b5061010360048036038101906100fe9190610841565b610691565b60405161011091906109fa565b60405180910390f35b34801561012557600080fd5b50610140600480360381019061013b9190610b9a565b6106bf565b005b34801561014e57600080fd5b5061015761072c565b6040516101649190610c55565b60405180910390f35b606060005b60018054905081101561027157826001828154811061019457610193610c70565b5b906000526020600020906002020160000154141561025e57600181815481106101c0576101bf610c70565b5b906000526020600020906002020160010180548060200260200160405190810160405280929190818152602001828054801561025157602002820191906000526020600020905b8160009054906101000a900473ffffffffffffffffffffffffffffffffffffffff1673ffffffffffffffffffffffffffffffffffffffff1681526020019060010190808311610207575b5050505050915050610273565b808061026990610cce565b915050610172565b505b919050565b60008060009054906101000a900473ffffffffffffffffffffffffffffffffffffffff1673ffffffffffffffffffffffffffffffffffffffff16637bf0989a836040518263ffffffff1660e01b81526004016102d491906109fa565b60206040518083038186803b1580156102ec57600080fd5b505afa158015610300573d6000803e3d6000fd5b505050506040513d601f19601f820116820180604052508101906103249190610d2c565b905060003490508181101561033857600080fd5b60008060009054906101000a900473ffffffffffffffffffffffffffffffffffffffff1673ffffffffffffffffffffffffffffffffffffffff16636352211e856040518263ffffffff1660e01b815260040161039491906109fa565b60206040518083038186803b1580156103ac57600080fd5b505afa1580156103c0573d6000803e3d6000fd5b505050506040513d601f19601f820116820180604052508101906103e49190610d6e565b905060006103f18561016d565b905060008151846104029190610dca565b905060005b825181101561052b5760008054906101000a900473ffffffffffffffffffffffffffffffffffffffff1673ffffffffffffffffffffffffffffffffffffffff1663ee6d644e84838151811061045f5761045e610c70565b5b6020026020010151896040518363ffffffff1660e01b8152600401610485929190610e0a565b600060405180830381600087803b15801561049f57600080fd5b505af11580156104b3573d6000803e3d6000fd5b505050508281815181106104ca576104c9610c70565b5b602002602001015173ffffffffffffffffffffffffffffffffffffffff166108fc839081150290604051600060405180830381858888f19350505050158015610517573d6000803e3d6000fd5b50808061052390610cce565b915050610407565b5060008054906101000a900473ffffffffffffffffffffffffffffffffffffffff1673ffffffffffffffffffffffffffffffffffffffff1663d11eccd68433896040518463ffffffff1660e01b815260040161058993929190610e54565b600060405180830381600087803b1580156105a357600080fd5b505af11580156105b7573d6000803e3d6000fd5b5050505060008054906101000a900473ffffffffffffffffffffffffffffffffffffffff1673ffffffffffffffffffffffffffffffffffffffff16632931a108876040518263ffffffff1660e01b815260040161061491906109fa565b600060405180830381600087803b15801561062e57600080fd5b505af1158015610642573d6000803e3d6000fd5b50505050505050505050565b806000806101000a81548173ffffffffffffffffffffffffffffffffffffffff021916908373ffffffffffffffffffffffffffffffffffffffff16021790555050565b600181815481106106a157600080fd5b90600052602060002090600202016000915090508060000154905081565b60016040518060400160405280838152602001848152509080600181540180825580915050600190039060005260206000209060020201600090919091909150600082015181600001556020820151816001019080519060200190610725929190610750565b5050505050565b60008054906101000a900473ffffffffffffffffffffffffffffffffffffffff1681565b8280548282559060005260206000209081019282156107c9579160200282015b828111156107c85782518260006101000a81548173ffffffffffffffffffffffffffffffffffffffff021916908373ffffffffffffffffffffffffffffffffffffffff16021790555091602001919060010190610770565b5b5090506107d691906107da565b5090565b5b808211156107f35760008160009055506001016107db565b5090565b6000604051905090565b600080fd5b600080fd5b6000819050919050565b61081e8161080b565b811461082957600080fd5b50565b60008135905061083b81610815565b92915050565b60006020828403121561085757610856610801565b5b60006108658482850161082c565b91505092915050565b600081519050919050565b600082825260208201905092915050565b6000819050602082019050919050565b600073ffffffffffffffffffffffffffffffffffffffff82169050919050565b60006108c58261089a565b9050919050565b6108d5816108ba565b82525050565b60006108e783836108cc565b60208301905092915050565b6000602082019050919050565b600061090b8261086e565b6109158185610879565b93506109208361088a565b8060005b8381101561095157815161093888826108db565b9750610943836108f3565b925050600181019050610924565b5085935050505092915050565b600060208201905081810360008301526109788184610900565b905092915050565b600061098b826108ba565b9050919050565b61099b81610980565b81146109a657600080fd5b50565b6000813590506109b881610992565b92915050565b6000602082840312156109d4576109d3610801565b5b60006109e2848285016109a9565b91505092915050565b6109f48161080b565b82525050565b6000602082019050610a0f60008301846109eb565b92915050565b600080fd5b6000601f19601f8301169050919050565b7f4e487b7100000000000000000000000000000000000000000000000000000000600052604160045260246000fd5b610a6382610a1a565b810181811067ffffffffffffffff82111715610a8257610a81610a2b565b5b80604052505050565b6000610a956107f7565b9050610aa18282610a5a565b919050565b600067ffffffffffffffff821115610ac157610ac0610a2b565b5b602082029050602081019050919050565b600080fd5b610ae0816108ba565b8114610aeb57600080fd5b50565b600081359050610afd81610ad7565b92915050565b6000610b16610b1184610aa6565b610a8b565b90508083825260208201905060208402830185811115610b3957610b38610ad2565b5b835b81811015610b625780610b4e8882610aee565b845260208401935050602081019050610b3b565b5050509392505050565b600082601f830112610b8157610b80610a15565b5b8135610b91848260208601610b03565b91505092915050565b60008060408385031215610bb157610bb0610801565b5b600083013567ffffffffffffffff811115610bcf57610bce610806565b5b610bdb85828601610b6c565b9250506020610bec8582860161082c565b9150509250929050565b6000819050919050565b6000610c1b610c16610c118461089a565b610bf6565b61089a565b9050919050565b6000610c2d82610c00565b9050919050565b6000610c3f82610c22565b9050919050565b610c4f81610c34565b82525050565b6000602082019050610c6a6000830184610c46565b92915050565b7f4e487b7100000000000000000000000000000000000000000000000000000000600052603260045260246000fd5b7f4e487b7100000000000000000000000000000000000000000000000000000000600052601160045260246000fd5b6000610cd98261080b565b91507fffffffffffffffffffffffffffffffffffffffffffffffffffffffffffffffff821415610d0c57610d0b610c9f565b5b600182019050919050565b600081519050610d2681610815565b92915050565b600060208284031215610d4257610d41610801565b5b6000610d5084828501610d17565b91505092915050565b600081519050610d6881610ad7565b92915050565b600060208284031215610d8457610d83610801565b5b6000610d9284828501610d59565b91505092915050565b7f4e487b7100000000000000000000000000000000000000000000000000000000600052601260045260246000fd5b6000610dd58261080b565b9150610de08361080b565b925082610df057610def610d9b565b5b828204905092915050565b610e04816108ba565b82525050565b6000604082019050610e1f6000830185610dfb565b610e2c60208301846109eb565b9392505050565b6000610e3e82610c22565b9050919050565b610e4e81610e33565b82525050565b6000606082019050610e696000830186610e45565b610e766020830185610dfb565b610e8360408301846109eb565b94935050505056fea2646970667358221220a2aec7ec95286cd4ad5072f9d7d6a05aeafc3b2c53a747f9c3fbab4d724eef8164736f6c63430008090033",
  "immutableReferences": {},
  "source": "// SPDX-License-Identifier: MIT\r\npragma solidity ^0.8.0;\r\nimport \"./SimpleNFT.sol\";\r\n\r\ncontract SimpleNFTCustodian {\r\n    SimpleNFT public simpleNft;\r\n    struct PartialOwnersData {\r\n        uint256 nftId;\r\n        address[] partialOwners;\r\n    }\r\n    PartialOwnersData[] public partialOwnerDataArray;\r\n\r\n    function setSimpleNftAddress(SimpleNFT instanceAddress) public {\r\n        simpleNft = instanceAddress;\r\n    }\r\n\r\n    function setPartialOwnership(\r\n        address[] memory partialOwnersArray,\r\n        uint256 nftId\r\n    ) public {\r\n        partialOwnerDataArray.push(\r\n            PartialOwnersData({nftId: nftId, partialOwners: partialOwnersArray})\r\n        );\r\n    }\r\n\r\n    function getPartialOwnershipAddressById(uint256 nftId)\r\n        public\r\n        view\r\n        returns (address[] memory)\r\n    {\r\n        for (uint256 i = 0; i < partialOwnerDataArray.length; i++) {\r\n            if (partialOwnerDataArray[i].nftId == nftId) {\r\n                return partialOwnerDataArray[i].partialOwners;\r\n            }\r\n        }\r\n    }\r\n\r\n    function buyNft(uint256 nftId) public payable {\r\n        uint256 salePrice = simpleNft.getNftPrice(nftId);\r\n        uint256 amountPaid = msg.value;\r\n\r\n        require(amountPaid >= salePrice);\r\n\r\n        address payable currentOwner = payable(simpleNft.ownerOf(nftId));\r\n        address[] memory partialOwnersAddress = getPartialOwnershipAddressById(\r\n            nftId\r\n        );\r\n\r\n        uint256 newAmountPaid = amountPaid / partialOwnersAddress.length;\r\n        for (uint256 i = 0; i < partialOwnersAddress.length; i++) {\r\n            simpleNft.changePartialOwner(partialOwnersAddress[i], nftId);\r\n            payable(partialOwnersAddress[i]).transfer(newAmountPaid);\r\n        }\r\n        // currentOwner.transfer(amountPaid);\r\n        simpleNft.transferNft(currentOwner, msg.sender, nftId);\r\n        simpleNft.markAsSold(nftId);\r\n    }\r\n}\r\n",
  "sourcePath": "E:\\Nft-marketplace\\simple-nft\\contracts\\SimpleNFTCustodian.sol",
  "compiler": {
    "name": "solc",
    "version": "0.8.9+commit.e5eed63a.Emscripten.clang"
  },
  "schemaVersion": "3.4.3",
  "updatedAt": "2021-10-26T20:11:07.638Z",
  "networkType": "ethereum",
  "devdoc": {
    "kind": "dev",
    "methods": {},
    "version": 1
  },
  "userdoc": {
    "kind": "user",
    "methods": {},
    "version": 1
  }
}